:100000000C94F4180C9425190C9425190C942519AA
:100010000C9425190C9425190C9425190C94251968
:100020000C9425190C9425190C9425190C94251958
:100030000C9425190C94D2A00C9425190C94251914
:100040000C9425190C94BAC70C9425190C942519F5
:100050000C9425190C9425190C945CA40C9488A07C
:100060000C9425190C94187F0C940E7F0C94251970
:100070000C9425190C9425190C9425190C94251908
:100080000C9425190C9425190C9425190C942519F8
:100090000C9425190C9425190C9425190C942519E8
:1000A0000C9425190C9425190C9425190C942519D8
:1000B0000C9425190C9425190C9425190C942519C8
:1000C0000C9425190C9425190C9425190C942519B8
:1000D0000C9425190C9425190C9425190C942519A8
:1000E0000C942519084AD73B3BCE016E84BCBFFD5A
:1000F000C12F3D6C74319ABD56833DDA3D00C77FF8
:1001000011BED9E4BB4C3E916BAAAABE0000008090
:100110003F05A84CCDB2D44EB93836A9020C50B91F
:10012000918688083CA6AAAA2ABE000000803F004B
:100130004E414E494E495459494E46CDCCCC3D0ACC
:10014000D7233C17B7D13877CC2B329595E6241FAF
:10015000B14F0A000020410000C84200401C462068
:10016000BCBE4CCA1B0E5AAEC59D7400407A10F33B
:100170005A00A0724E18090010A5D4E80000E876D5
:1001800048170000E40B54020000CA9A3B0000002C
:10019000E1F505000080969800000040420F000045
:1001A00000A08601000000102700000000E8030006
:1001B0000000006400000000000A000000000001D0
:1001C00000000000002C76D888DC674F0823DFC1D0
:1001D000DFAE59E1B1B796E5E3E453C63AE651998B
:1001E0007696E8E6C28426EB898C9B62ED407C6FB4
:1001F000FCEFBC9C9F40F2BAA56FA5F490055A2A6B
:10020000F75C936B6CF9676DC11BFCE0E40D47FE76
:10021000F520E6B500D0ED902E030094357705006B
:1002200080841E080000204E0A000000C80C3333F2
:1002300033330F986E12831141EF8D2114893BE601
:100240005516CFFEE6DB18D1844B381BF77C1D908A
:100250001DA4BBE424203284725E228100C9F124F3
:10026000ECA1E53D27434F4D4D554E49434154497F
:100270004F4E0044525952554E004552524F525320
:1002800000494E464F004543484F00554E4C4F41A4
:10029000442046494C414D454E54004C4F4144206A
:1002A00046494C414D454E540046494C414D454E02
:1002B00054204348414E47450053544F5050454405
:1002C0002E20005072696E7465722073746F7070A6
:1002D00065642064756520746F206572726F727337
:1002E0002E2046697820746865206572726F7220CE
:1002F000616E6420757365204D39393920746F2023
:10030000726573746172742E202854656D70657205
:1003100061747572652069732072657365742E202F
:100320005365742069742061667465722072657308
:1003300074617274696E67290A004E6F20436865A4
:10034000636B73756D2077697468206C696E6520C6
:100350006E756D6265722C204C617374204C696EF1
:10036000653A2000636865636B73756D206D697312
:100370006D617463682C204C617374204C696E65E8
:100380003A20004C696E65204E756D626572206979
:1003900073206E6F74204C617374204C696E6520FD
:1003A0004E756D6265722B312C204C617374204C3C
:1003B000696E653A20004D313130005365726961D4
:1003C0006C20737461747573206D69736D617463EF
:1003D000680A002121204B494C4C206361757365EC
:1003E00064206279204B494C4C20627574746F6EA6
:1003F0002F70696E0A002121204B494C4C2063610B
:100400007573656420627920746F6F206D75636801
:1004100020696E6163746976652074696D65202D4D
:100420002063757272656E7420636F6D6D616E64AA
:100430003A2000627573793A2070617573656420A3
:10044000666F7220696E7075740A00627573793A0E
:100450002070617573656420666F722075736572B4
:100460000A00627573793A2070726F6365737369FD
:100470006E670A00506C6561736520526573657420
:10048000005052494E5445522048414C5445440076
:1004900025533A202553004B494C4C45442E20000F
:1004A0005072696E7465722068616C7465642E2088
:1004B0006B696C6C28292063616C6C6564210A008F
:1004C0006563686F3A004572726F723A000A4D6553
:1004D00061737572656420706F696E74733A0A0097
:1004E000337833206D6573682E205A206F666673EB
:1004F00065743A2000486F74656E6420746F6F20D5
:10050000636F6C640A004732362043616E63656C2A
:100510006564004732362048656174696E67204E15
:100520006F7A7A6C65004732362048656174696E6F
:1005300067204265640057616974696E6720666F61
:1005400072206865617475702E0A0046697865646A
:10055000204C656E677468205072696D6500446F49
:100560006E65205072696D696E67004D616E7561D0
:100570006C207072696D696E672E2E2E004C65615D
:1005800076696E6720473236003F5370656369664F
:1005900069656420582C5920636F6F7264696E61BD
:1005A0007465206F7574206F6620626F756E64735A
:1005B0002E0A003F28522965706561742076616CAF
:1005C0007565206E6F7420706C61757369626C65FF
:1005D0003B206D757374206265206174206C6561C9
:1005E000737420312E0A003F537065636966696534
:1005F00064206E6F7A7A6C652074656D70657261C7
:1006000074757265206E6F7420706C6175736962A9
:100610006C652E0A003F53706563696669656420E6
:1006200066696C616D656E742073697A65206E6FA2
:100630007420706C61757369626C652E0A003F539B
:100640007065636966696564207072696D65206CA8
:10065000656E677468206E6F7420706C6175736965
:10066000626C652E0A003F53706563696669656454
:10067000206E6F7A7A6C652073697A65206E6F746C
:1006800020706C61757369626C652E0A003F52655B
:100690007472616374696F6E204D756C7469706CEF
:1006A000696572206D75737420626520737065636F
:1006B00069666965642E0A003F53706563696669FF
:1006C00065642052657472616374696F6E204D7544
:1006D0006C7469706C696572206E6F7420706C61E7
:1006E000757369626C652E0A003F537065636966B5
:1006F000696564206C6179657220686569676874F2
:10070000206E6F7420706C61757369626C652E0A5F
:100710000043292E0A003F5370656369666965646A
:10072000206265642074656D7065726174757265B0
:10073000206E6F7420706C61757369626C6520281F
:1007400034302D00473236207374617274696E67DD
:100750002E2E2E0A00206E6F7420656E74657265F1
:10076000642E0A0050726F62696E6720506F696E66
:10077000740025532025692F256900206F6620000D
:100780004D424C2047323920706F696E7420002929
:100790000A004A206F7574206F662072616E67656B
:1007A0002028302D00290A0049206F7574206F66BB
:1007B0002072616E67652028302D004732384C303A
:1007C000004D6573682070726F62696E6720646F98
:1007D0006E65004D6573682070726F62696E672088
:1007E000646F6E652E0A005374617274206D6573B8
:1007F000682070726F62696E672077697468202262
:10080000473239205331222066697273742E0A00F0
:100810004732395332004732384C300A4732395365
:100820003200686173206E6F20646174612E0A006B
:100830004D65736820426564204C6576656C696E11
:1008400067200053206F7574206F662072616E6799
:10085000652028302D35292E0A00496E7365727483
:100860002066696C616D656E7420616E64207072C3
:1008700065737320627574746F6E0A0050726573CD
:100880007320627574746F6E20746F206865617474
:10089000206E6F7A7A6C650A0020496E76616C6909
:1008A00064206578747275646572200047322F4742
:1008B000332062616420706172616D65746572736A
:1008C0000A00536C6565702E2E2E004D65736820EE
:1008D000706F696E74206F7574206F662072616E20
:1008E00067650A00436C69636B20746F20526573FF
:1008F000756D652E2E2E004E6F204D6F76652E0085
:100900002569730025696D202569730025696820B4
:1009100025696D2025697300256964202569682093
:1009200025696D2025697300256979202569642072
:100930002569682025696D20256973005072696EEC
:10094000742074696D653A20006F6B006F666600F5
:10095000860281027A027302650244454255473A93
:10096000004D3131322053687574646F776E004DDD
:100970003131332053005369646577696E64657261
:10098000205831204F46462E004D4541545041439A
:100990004B00434F4F4C45525F54454D50455241DB
:1009A00054555245004348414D4245525F54454DD0
:1009B00050455241545552450042414259535445C5
:1009C0005050494E470041524353004D4F54494FF8
:1009D0004E5F4D4F44455300544845524D414C5F86
:1009E00050524F54454354494F4E004C4F4E475F71
:1009F00046494C454E414D45004155544F52455096
:100A00004F52545F53445F53544154555300534421
:100A10005F57524954450052455045415400534494
:100A2000434152440050524F4D50545F5355505023
:100A30004F525400454D455247454E43595F504132
:100A40005253455200434153455F4C494748545F18
:100A50004252494748544E45535300544F47474C20
:100A6000455F4C494748545300534F4654574152F1
:100A7000455F504F574552004255494C445F5045E1
:100A80005243454E54004C4556454C494E475F44F1
:100A9000415441005A5F50524F42450052554E4F0B
:100AA0005554004155544F4C4556454C0050524901
:100AB0004E545F4A4F420050524F475245535300E5
:100AC0004155544F5245504F52545F54454D50007C
:100AD0004155544F5245504F52545F504F5300565A
:100AE0004F4C554D455452494300454550524F4D8A
:100AF0000042494E4152595F46494C455F5452416C
:100B00004E534645520053455249414C5F584F4E53
:100B10005F584F4646004649524D574152455F4E39
:100B2000414D453A4D61726C696E20322E302E383F
:100B30002E3120284A756E20323420323032312056
:100B400031383A35373A32362920534F55524345DA
:100B50005F434F44455F55524C3A6769746875620C
:100B60002E636F6D2F4D61726C696E4669726D7781
:100B70006172652F4D61726C696E2050524F544FF7
:100B8000434F4C5F56455253494F4E3A312E302019
:100B90004D414348494E455F545950453A53696465
:100BA0006577696E646572205831204558545255F6
:100BB0004445525F434F554E543A312055554944B0
:100BC0003A63656465326132662D343161322D34A9
:100BD0003734382D396231322D633535633632661C
:100BE00033363766660A002F2F004D3134352053D7
:100BF0003C696E6465783E206F7574206F66207264
:100C0000616E67652028302D31290A00205200418D
:100C10006363656C65726174696F6E3A2050003F62
:100C20004A206F7574206F662072616E6765202898
:100C3000302E303120746F20302E33290A004D328F
:100C4000303620580020580020204D61783A20008E
:100C5000200020204D696E3A2000536F6674206595
:100C60006E6473746F70733A200046523A002046E7
:100C70006C6F773A20004261627973746570205A14
:100C8000004D424C2041646A757374205A00206400
:100C90003A0020693A0020703A00496E76616C692A
:100CA000642065787472756465720A0020643A0085
:100CB00020693A0020703A0064697300656E004351
:100CC000290A0061626C656420286D696E20746574
:100CD0006D702000436F6C64206578747275646574
:100CE000732061726520004F4646004F4E004F460C
:100CF000460A00466164652048656967687420009B
:100D0000426564204C6576656C696E6720004661BB
:100D1000696C656420746F20656E61626C65204249
:100D20006564204C6576656C696E670A004D657375
:100D30006820426564204C6576656C20646174614E
:100D40003A0A00496E76616C6964206D6573682E9D
:100D50000A004D65736820706F696E74206F75743A
:100D6000206F662072616E67650A004D3432312053
:100D7000696E636F727265637420706172616D6514
:100D80007465722075736167650A004F66667365E6
:100D90007473204170706C696564004572723A200A
:100DA000546F6F206661722100546F6F206661720C
:100DB0002066726F6D207265666572656E63652070
:100DC000706F696E740A00454550524F4D204F4B6D
:100DD0000A002E0A002028302D31302900207661AB
:100DE0006C7565206F7574206F662072616E676523
:100DF00000416476616E6365204B3D006F6B00437C
:100E000061703A00436F6F6C696E672E2E2E00483A
:100E1000656174696E672E2E2E00452025530042B1
:100E2000656420436F6F6C696E672E2E2E004265DD
:100E3000642048656174696E672E2E2E00236465F8
:100E400066696E652044454641554C545F006265B5
:100E500064004B6420004B6920004B702000504917
:100E600044204175746F74756E652066696E697390
:100E7000686564212050757420746865206C617306
:100E800074204B702C204B6920616E64204B6420D1
:100E9000636F6E7374616E74732066726F6D20621F
:100EA000656C6F7720696E746F20436F6E6669673B
:100EB00075726174696F6E2E680A00504944204152
:100EC00075746F74756E65206661696C6564212048
:100ED00074696D656F75740A0050494420417574DA
:100EE0006F74756E65206661696C65642120546558
:100EF0006D706572617475726520746F6F206869BA
:100F000067680A00204B643A2000204B693A2000B1
:100F1000204B703A200020436C617373696320504A
:100F20004944200A00204E6F206F76657273686F07
:100F30006F740A002054753A2000204B753A200047
:100F4000206D61783A2000206D696E3A200020649F
:100F50003A200020626961733A20005049442041E0
:100F600075746F74756E652073746172740A0050C5
:100F70004944204175746F74756E65206661696CB3
:100F80006564212054656D706572617475726520A9
:100F9000746F6F20686967680A0050494420417582
:100FA000746F74756E6500504944204175746F7498
:100FB000756E65206661696C6564212042616420FC
:100FC0006865617465722069640A00A100000069A7
:100FD00000A20000006300B00000000900C1000092
:100FE000004100C20000004100C30000004100C4F5
:100FF0000000004100C50000004100C600000041A3
:1010000045C70000004300C80000004500C90000BB
:10101000004500CD0000004900D10000004E00D581
:101020000000004F00D60000004F00D700000078FD
:1010300000DC0000005500DD0000005900E0000069
:10104000006100E10000006100E20000006100E3D7
:101050000000006100E40000006100E500000061A4
:1010600000E60000006165E70000006300E80000A2
:10107000006500E90000006500EA0000006500EB83
:101080000000006500EC0000006900ED0000006950
:1010900000EE0000006900EF0000006900F10000B0
:1010A000006E00F20000006F00F30000006F00F41B
:1010B0000000006F00F50000006F00F60000006FF8
:1010C00000F80000006F00F90000007500FA000051
:1010D000007500FB0000007500FC0000007500FDBD
:1010E0000000007900FF00000079000401000041C9
:1010F0000005010000610006010000430007010037
:101100000063000C01000043000D01000063000EAD
:1011100001000044000F01000064001101000064A0
:10112000001901000065001A01000045001B0100C4
:101130000065001F01000067003001000049003118
:101140000100006900410100004C00420100006CF8
:1011500000430100004E00440100006E0048010001
:10116000006E005801000052005901000072005A40
:1011700001000053005B01000073005F0100007379
:101180000060010000530061010000730065010070
:101190000074006F01000075007C0100007A007D82
:1011A0000100005A007E0100007A009201000066F2
:1011B00000E30200007800222000002E001E210023
:1011C00000507822210000544D902100003C2D92C7
:1011D0002100002D3EB02100000300BB21000004CF
:1011E000003C2200007E00482200007E3D6022007C
:1011F00000213D612200003D00642200003C3D656D
:101200002200003E3DF12300000700A03000003D19
:101210000021F301000200C2F401000500A100005A
:1012200000A900A2000000A400A3000000A500A5E2
:10123000000000A600A7000000D200A9000000CF17
:1012400000AA0000009D00AB000000BB00AE000043
:1012500000CE00B0000000B200B10000001000B2EB
:101260000000001E00B30000001F00B6000000D305
:1012700000BA0000009E00BB000000BC00BC0000E3
:1012800000B600BD000000B500BF0000009F00C216
:101290000000008F00C3000000AA00C40000008E00
:1012A00000C60000009200C70000008000C90000D6
:1012B000009000D10000009C00D5000000AC00D6DA
:1012C0000000009900D7000000B700D8000000AE71
:1012D00000DC0000009A00E00000008500E1000052
:1012E00000A000E20000008300E3000000AB00E487
:1012F0000000008400E50000008600E60000009188
:1013000000E70000008700E80000008A00E9000014
:10131000008200EA0000008800EB0000008900EC79
:101320000000008D00ED000000A100EE0000008C28
:1013300000EF0000008B00F10000009B00F20000B5
:10134000009500F3000000A200F40000009300F5F7
:10135000000000AD00F60000009400F7000000B8A7
:1013600000F8000000AF00F90000009700FA00004C
:1013700000A300FB0000009600FC0000008100FFBD
:10138000000000980092010000A8008E030000DB1E
:10139000008F030000DE0090030000E700930300CD
:1013A00000D40094030000D50098030000D6009BF1
:1013B000030000D7009E030000D800A0030000D95E
:1013C00000A3030000DA00A5030000DB00A6030071
:1013D00000DC00A8030000DD00A9030000DE00AC73
:1013E000030000DF00AD030000E300AE030000E5F2
:1013F00000AF030000E700B0030000F100B10300FC
:1014000000DF00B2030000E000B3030000E100B41D
:10141000030000E200B5030000E300B6030000E4AF
:1014200000B7030000E500B8030000E600B90300C0
:1014300000E700BA030000E800BB030000E900BCBD
:10144000030000EA00BD030000EB00BE030000EC57
:1014500000C0030000ED00C1030000EE00C3030064
:1014600000EF00C4030000F000C5030000F100C756
:10147000030000F200C8030000F300C9030000F4F9
:1014800000CA030000E700CB030000F100CD030019
:1014900000F100CE030000F40022200000CD001E69
:1014A000210000A70022210000D000A4210000F9A3
:1014B00000B5210000C400BB2100000400E52100AC
:1014C00000FB001A220000BE001E220000C2002BFA
:1014D0002200001B003C2200001D00482200001AD0
:1014E0000060220000BD00612200001100642200A3
:1014F00000B90065220000BA0020230000C00021CE
:10150000230000C100A72300001400A92300001538
:1015100000AB2300001600AD2300001700B023002D
:10152000001800B12300001900B22300001200B31C
:101530002300001300F123000007000C250000C960
:101540000010250000CA0014250000CB001825005B
:1015500000CC00F8250000C300602B0000C800612B
:101560002B0000C500622B0000C700632B0000C6E3
:1015700000C62B0000F500C72B0000F700C82B00A9
:1015800000F60000000000010204040000001C1C22
:101590000C04040402010000000000040810000014
:1015A0000000002D2D2D2D2D2D007C4D61726C69BC
:1015B0006E7C002D2D2D2D2D2D00040E1F041C00E2
:1015C0000000000E1315110E00001C101817050660
:1015D0000500040A0A0A0A11110E0C12120C00006E
:1015E0000000001F1511151F000042656400456EC4
:1015F000636C6F73757265002568753A25303268C3
:10160000750025303268753A253032687500202023
:101610002020202020002020202000454550524F2F
:101620004D2056657273696F6E204572726F72003D
:10163000454550524F4D20496E6465782045727281
:101640006F7200454550524F4D2043524320457222
:10165000726F72003F0049676E6F7265005265736A
:10166000657400496E697469616C697A65204545E5
:1016700050524F4D004C6F6164206D6D00556E6C83
:101680006F6164206D6D0046696C2E204469612E87
:10169000004520696E206D6D5E3300416476616E99
:1016A0006365204B004D333033205531204525698B
:1016B0002053256900504944204175746F74756E3C
:1016C00065202A005049442D44202A005049442DC9
:1016D00049202A005049442D50202A00200220464B
:1016E000616374002002204D6178002002204D6962
:1016F0006E004F6666004F6E004175746F74656DC5
:1017000070005654726176204D696E00566D696E98
:1017100000566D6178204500566D6178205A00565C
:101720006D6178205900566D6178205800416D61D7
:1017300078204500416D6178205A00416D61782024
:101740005900416D6178205800412D5472617665D1
:101750006C00412D5265747261637400416363656E
:101760006C00452073746570732F6D6D005A2053A3
:10177000746570732F6D6D00592053746570732FED
:101780006D6D00582053746570732F6D6D0041644A
:1017900076616E6365642053657474696E67730067
:1017A0003F0043616E63656C00496E6974004D349F
:1017B000323800496E697469616C697A6520454503
:1017C00050524F4D0046696C616D656E74005465F2
:1017D0006D70657261747572650053746570732FF6
:1017E0006D6D004A756E6374696F6E204465760096
:1017F000416363656C65726174696F6E0056656CF8
:101800006F636974790053657420486F6D65204F6C
:1018100066667365747300436F6E6669677572619F
:1018200074696F6E003F004E65787420436F726E6E
:10183000657200446F6E65004E65787400486F6D88
:10184000696E672058595A00426564004E6F7A7A73
:101850006C650046616E20537065656400436F6E71
:1018600066696775726174696F6E00526573746F33
:1018700072652044656661756C7473004C6F6164B9
:101880002053657474696E67730053746F726520BA
:1018900053657474696E677300507265686561742E
:1018A000202420436F6E6600416476616E63656438
:1018B0002053657474696E6773004D61696E004DE5
:1018C00037303220542564004D36303020423020ED
:1018D000542564004D373032203B2564004D3730AD
:1018E0003120542564004D373032004D37303100FF
:1018F0004D363030204230004D61696E00436F6ECE
:1019000074696E7565005075726765206D6F7265DC
:1019100000524553554D45204F5054494F4E533A70
:10192000005052494E542050415553454400202008
:101930004E6F7A7A6C653A20005045544700504CFF
:10194000410024F4D43050C38E20C2A24017828BB1
:101950007011127A910D816CD90AA861E108C758FB
:101960006607615143061E4B5D05C145A7041A4138
:101970001104093D9803713931034036DB026533A8
:101980009102D4305402802E1D02632CEE01752A80
:10199000C501B028A001102781018F2564012B24E7
:1019A0004B01E0223401AC211F018D200D01801F6D
:1019B000FC00841EED00971DDF00B81CD200E61B62
:1019C000C600201BBC00641AB200B219A8000A1994
:1019D000A0006A189900D117910040178B00B51626
:1019E000840031167E00B31579003A157300C714D0
:1019F0006F0058146A00EE13660088136300251305
:101A00005E00C7125B006C12570015125400C11122
:101A1000510070114F0021114B00D61049008D105C
:101A200047004610440002104200C00F4000800FE3
:101A30003E00420F3C00060F3B00CB0E3800930ED9
:101A400037005C0E3500270E3400F30D3200C10D57
:101A50003100900D3000600D2E00320D2D00050D6F
:101A60002C00D90C2B00AE0C2900850C29005C0C35
:101A70002700350C27000E0C2600E80B2400C40BB1
:101A80002400A00B23007D0B23005A0B2100390BEF
:101A90002100180B2000F80A1F00D90A1E00BB0AFB
:101AA0001E009D0A1D00800A1D00630A1C00470AD3
:101AB0001B002C0A1B00110A1A00F7091A00DD0985
:101AC0001900C4091900AB091900920917007B0914
:101AD0001800630917004C09160036091600200982
:101AE00016000A091500F5081500E0081400CC08D6
:101AF0001400B8081400A4081400900813007D080E
:101B000012006B081300580812004608120034082F
:101B10001100230811001208110001081100F0073C
:101B20001000E0071000D0071000C0071000B00739
:101B30000F00A107100091070E0083070F00740724
:101B40000F0065070E0057070E0049070E003B0700
:101B50000D002E070E0020070D0013070D000607CD
:101B60000D00F9060C00ED060D00E0060C00D40691
:101B70000C00C8060C00BC060C00B0060C00A40645
:101B80000B0099060C008D060B0082060B007706F1
:101B90000B006C060B0061060A0057060B004C0692
:101BA0000A0042060A0038060A002E060A00240629
:101BB0000A001A060A001006090007060A00FD05B9
:101BC0000900F4050900EB050900E2050900D90543
:101BD0000900D0050900C7050900BE050900B505C3
:101BE0000800AD050800A50509009C05080094053E
:101BF00008008C050800840508007C0508007405B1
:101C000008006C050700650508005D05070056051E
:101C100008004E0507004705070040050800380585
:101C20000700310507002A050700230507001C05EA
:101C30000600160507000F05070008050600020547
:101C40000700FB040600F5040700EE040600E804A4
:101C50000600E2040700DB040600D5040600CF04FA
:101C60000600C9040600C3040600BD040600B7044C
:101C70000600B1040500AC040600A6040600A0049A
:101C800005009B04060095040500900406008A04E4
:101C9000050085040500800406007A04050075042B
:101CA0000500700405006B0405006604050061046E
:101CB00005005C04050057040500520405004D04AE
:101CC000050048040500430405003E0404003A04EE
:101CD000050035040500300404002C040500270429
:101CE0000400230405001E0404001A040400160462
:101CF0000500110404000D04040009040500040497
:101D0000040000040400FC030400F8030400F403CE
:101D10000400F0030400EC030400E8030400E403FF
:101D20000400E0030400DC030400D8030400D4032F
:101D30000400D0030400CC030400C8030300C5035F
:101D4000030024F404D9201BC40C5C0E9804C409BD
:101D50005F0265077101F405F900FB04B300480454
:101D60008700C10369005803550003034500BE0204
:101D70003A008402310053022A002902250004029D
:101D80002000E4011C00C8011900AF0117009801F0
:101D90001400840113007101100061011000510151
:101DA0000E0043010D0036010B002B010B0020013A
:101DB0000B00150109000C01090003010800FB00DC
:101DC0000800F3000800EB000700E4000600DE0056
:101DD0000600D8000600D2000600CC000500C700AF
:101DE0000500C2000500BD000400B9000400B500F4
:101DF0000400B1000400AD000400A9000400A50027
:101E00000300A20003009F0004009B000300980051
:101E100003009500020093000300900003008D0072
:101E200002008B000300880002008600020084008C
:101E30000300810002007F0002007D0002007B00A1
:101E400002007900020077000100760002007400B1
:101E5000020072000100710002006F0002006D00BC
:101E600001006C0002006A000100690002006700C6
:101E700001006600010065000100640002006200CC
:101E8000010061000100600001005F0002005D00D0
:101E900001005C0001005B0001005A0001005900D4
:101EA00001005800010057000100560001005500D4
:101EB00001005400010053000000530001005200D3
:101EC000010051000100500001004F0001004E00D0
:101ED00000004E0001004D0001004C0001004B00CD
:101EE00000004B0001004A000100490001004800C9
:101EF00000004800010047000100460000004600C5
:101F000001004500000045000100440001004300BD
:101F100000004300010042000000420001004100B7
:101F2000000041000100400001003F0000003F00B0
:101F300001003E0000003E0001003D0000003D00A9
:101F400001003C0000003C0000003C0001003B00A0
:101F500000003B0001003A0000003A000100390097
:101F6000000039000100380000003800000038008F
:101F70000100370000003700010036000000360085
:101F8000000036000100350000003500000035007B
:101F90000100340000003400000034000100330070
:101FA0000000330000003300010032000000320066
:101FB000000032000100310000003100000031005B
:101FC00001003000000030000000300001002F0050
:101FD00000002F0000002F0000002F0001002E0045
:101FE00000002E0000002E0001002D0000002D003A
:101FF00000002D0000002D0001002C0000002C002E
:1020000000002C0000002C0001002B0000002B0021
:1020100000002B0000002B0001002A0000002A0015
:1020200000002A0000002A00010029000000290009
:1020300000002900000029000000290001002800FC
:1020400000002800000028000000280000002800F0
:1020500001002700000027000000270000002700E3
:1020600000002700010026000000260000002600D6
:1020700000002600000026000100250000002500C9
:1020800000002500000025000000250000002500BC
:1020900001002400000024000000240000002400AF
:1020A00000002400010023000000230000002300A2
:1020B0000000230000002300000023000000230094
:1020C0000100220000002200000022000000220087
:1020D0000000220000002200010021000000210079
:1020E000000021000000210000002100000021006C
:1020F000000021000100200000002000000020005E
:10210000000020000000200000002000000020004F
:102110000000200001001F0000001F0000001F0041
:1021200000001F0000001F0000001F0000001F0033
:1021300001001E0000001E0000001E0000001E0026
:102140000000232C0000B8220000561800003A0FAF
:102150000000B8080000B1040000710200003E0158
:10216000000020436F756E7420583A000042656489
:1021700000453100626564002C2073797374656DCD
:102180002073746F70706564212048656174657296
:102190005F49443A200048656174696E6720466172
:1021A000696C65640048656174696E672066616981
:1021B0006C6564004572723A204D415854454D504B
:1021C000004D415854454D502074726967676572DF
:1021D0006564004572723A204D494E54454D500099
:1021E0004D494E54454D502074726967676572655C
:1021F0006400544845524D414C2052554E41574180
:102200005900546865726D616C2052756E6177611A
:102210007900202F002042403A0020403A00205709
:102220003A0020573A00496E76616C6964206578FF
:102230007472756465720A00026D61726C696E6613
:10224000772E6F7267006D61726C696E66772E6FA4
:102250007267006D61726C696E66772E6F726700CF
:10226000322E302E382E3100322E302E382E3100C4
:10227000322E302E382E31006D61726C696E6677A9
:102280002E6F7267006D61726C696E66772E6F7269
:1022900067006D61726C696E66772E6F72670020E1
:1022A000322E302E382E310070012C019001270182
:1022B000B0012201C0011D01F0011801100213013B
:1022C00030020E016002090190020401C002FF0009
:1022D0000003FA004003F5008003F000D003EB0098
:1022E0002004E6007004E100E004DC004005D700B3
:1022F000C005D2004006CD00D006C8008007C3004C
:102300003008BE00F008B900C009B400B00AAF0040
:10231000B00BAA00D00CA500000EA000500F9B002F
:10232000C01096005012910000148C00C015870058
:10233000B0178200B0197D00D01B7800001E73001A
:1023400040206E0090226900F024640040275F0066
:1023500090295A00E02B5500102E500020304B00E1
:1023600010324600E033410090353C001037370012
:1023700070383200A0392D00B03A2800A03B23006D
:10238000603C1E00103D1900903D1400103E0F00EF
:10239000703E0A00C03E0500003F0000403FFBFFCA
:1023A000803FF6FFC03FF1FF2020506C616E6E65EC
:1023B0007242756666657242797465733A200020D0
:1023C00046726565204D656D6F72793A2000436FE6
:1023D0006D70696C65643A204A756E203234203223
:1023E0003032310A00204C6173742055706461747E
:1023F00065643A20323032312D30352D3135207C34
:1024000020417574686F723A20284574686572655A
:10241000616C2050726F6A65637420415254494C5C
:102420004C4552592047454E49555320572F4D4151
:102430004E55414C204D455348290A00322E302E2E
:10244000382E310A004D61726C696E0020536F6640
:1024500074776172652052657365740A0020576154
:10246000746368646F672052657365740A00204264
:10247000726F776E206F75742052657365740A00F1
:102480002045787465726E616C2052657365740ABC
:1024900000506F77657255700A0073746172740A28
:1024A00000456E6473746F7073002553202563209C
:1024B000256320256320256300205A3A0020593ADD
:1024C0000020583A00656E6473746F7073206869F9
:1024D000743A200000000A0B02090C0D0E080703D5
:1024E00004010000000000000000000000000000E7
:1024F00000000000000000000000000000000000DC
:102500001211100000000000000000000000000098
:1025100000000000000000000000004D6F76652004
:1025200025736D6D004D6F766520302E316D6D0019
:102530004D6F766520316D6D004D6F7665203130C1
:102540006D6D004D6F766520417869730045787434
:102550007275646572004D6F7665205A004D6F7616
:10256000652059004D6F76652058003E1939194392
:1025700068616E67652046696C616D656E740055B3
:102580006E6C6F61642046696C616D656E74004CA1
:102590006F61642046696C616D656E740050726590
:1025A0006865617420437573746F6D00507265685F
:1025B0006561742024004261636B00486F6D696E31
:1025C00067204661696C656400FFFFFF486F6D65B9
:1025D0002025732573257320466972737400496E34
:1025E000736572742066696C616D656E7420616ECE
:1025F0006420707265737320627574746F6E0A0064
:10260000220A00556E6B6E6F776E20636F6D6D6181
:102610006E643A2022005369646577696E6465725E
:102620002058312052656164792E005072696E74B1
:10263000696E672E2E2E005072696E74205061757F
:1026400073656400204500205A00205900204D3950
:1026500032205800DB0FC93F45BCDA3F8FB3024040
:10266000FCF0274056946140FE4B9B4084A5D84027
:10267000E0231841346A5641E859974164DBD5415B
:102680006E271742B4B75542CE1A9742C8AED5420C
:10269000B5885A43D40684BFA65FA7BF7443E0BF82
:1026A00010B11AC01C2C58C0E8F697C0B849D6C063
:1026B0004E4E17C124D355C1802497C1A0B5D5C1B2
:1026C000121A17C244AE55C2781797C26CACD5C265
:1026D00067885AC320746F6F206C6F6E67206578AF
:1026E00074727573696F6E2070726576656E74654D
:1026F000640A0020636F6C64206578747275736976
:102700006F6E2070726576656E7465640A006F6B1B
:102710000A00526573656E643A20000000220025AD
:102720000028002B002E00310034000201000005BB
:102730000108010B0100002100240027002A002DC0
:10274000003000330001010000040107010A010507
:10275000050505070508080808020202020A0A081A
:102760000804040404010101010101010103030340
:102770000303030303040707070C0C0C0C0C0C0CDD
:102780000C0202020206060606060606060B0B0BE4
:102790000B0B0B0B0B01021020200808102040101F
:1027A0002040800201020108040201010204081015
:1027B0002040808040201008040201800402018033
:1027C000402010080402010804020101020408105C
:1027D000204080010204081020408020453A00205B
:1027E0005A3A0020593A00583A004572726F7220E6
:1027F00077726974696E6720746F20454550524F37
:102800004D210A005061726B696E672E2E2E0000FA
:10281000005761697420666F720066696C616D654E
:102820006E74206368616E676500746F20737461F5
:102830007274005761697420666F720066696C611A
:102840006D656E7420756E6C6F616400004E6F7AFA
:102850007A6C652068656174696E6700506C6561AB
:10286000736520776169742E2E2E00005072657397
:102870007320627574746F6E00746F206865617484
:10288000206E6F7A7A6C650000496E7365727420F1
:1028900066696C616D656E7400616E64207072654E
:1028A000737320627574746F6E00746F20636F6E43
:1028B00074696E7565005761697420666F72006691
:1028C000696C616D656E74206C6F6164000050729C
:1028D00065737320427574746F6E00746F20726537
:1028E00073756D65207072696E740000576169744C
:1028F00020666F72207072696E7400746F2072654A
:1029000073756D652E2E2E00005761697420666FF9
:10291000720066696C616D656E74207075726765B2
:1029200000004368616E67652046696C616D656E85
:102930007400436F6E66696775726174696F6E00CB
:1029400054656D7065726174757265004D6F746960
:102950006F6E0054756E6500496E666F205363722A
:1029600065656E002100486F74656E6420746F6F3A
:1029700020636F6C64004261636B0050726F63652B
:102980006564004D6F74696F6E0044697361626CB9
:1029900065205374657070657273004D3834004C57
:1029A0006576656C20436F726E6572730046616474
:1029B0006520486569676874004F6666004F6E0061
:1029C000426564204C6576656C696E67004C65767F
:1029D000656C20426564004732394E00486F6D6572
:1029E000205A004732385A00486F6D652059004719
:1029F00032385900486F6D6520580047323858000A
:102A00004175746F20486F6D6500473238004D6125
:102A1000696E0050726568656174202420456E649B
:102A2000005072656865617420242042656400541A
:102A3000656D706572617475726500436F6F6C646B
:102A40006F776E005072656865617420240046617E
:102A50006E20537065656400426564004E6F7A7A3B
:102A60006C65004D61696E00546F74616C00426169
:102A7000627973746570205A00416476616E636593
:102A8000204B00466C6F770046616E205370656581
:102A90006400426564004E6F7A7A6C65005370651D
:102AA0006564004D61696E006F70656E0054524937
:102AB000474745524544003A20007A5F6D696E00F1
:102AC000795F6D696E00785F6D696E005265706F39
:102AD0007274696E6720656E6473746F70207374AE
:102AE000617475730A0020746F6F206C6F6E6720BD
:102AF000657874727573696F6E2070726576656E35
:102B00007465640A0020636F6C6420657874727564
:102B100073696F6E2070726576656E7465640A0005
:102B2000000000C00000A0C0000000005761726EED
:102B3000696E673A20486F6D696E672042756D70E7
:102B40002044697669736F72203C20310A000202CA
:102B50000400005E430000614300007A430000A0CF
:102B6000400000A040000000400000000100000004
:102B700001000080005555550000004000333333FC
:102B800000AAAA2A004992240000002000C7711C54
:102B90000099991900D1451700555515003BB113FF
:102BA000002449120011111100000010000F0F0F36
:102BB00000E3380E0043790D00CCCC0C00C3300C80
:102BC00000E8A20B0064210B00AAAA0A00703D0ACB
:102BD000009DD80900427B090092240900DCD3083B
:102BE00000888808001042080000000800F0C107B3
:102BF000008787070075500700711C07003EEB0631
:102C000000A1BC06006990060066660600703E06DC
:102C1000006118060017F4050074D105005BB005CB
:102C200000B290050062720500555505007839051F
:102C300000B81E0500050505004EEC040087D4040D
:102C400000A1BD040090A7040049920400C17D04C6
:102C500000EE690400C7560400444404005C3204DA
:102C6000000821040041100400000004003FF003AC
:102C700000F8E0030026D20300C3C30300CCB50371
:102C8000003AA803000A9B0300388E0300C08103AA
:102C9000009F750300D0690300505E03001D5303BD
:102CA0000034480300913D03003333030016290329
:102CB00000381F030097150300300C0300030303C3
:102CC000000BFA020049F10200BAE802005CE002DF
:102CD000002DD802002DD0020059C80200B0C00259
:102CE0000031B90200DAB10200AAAA0200A0A302D0
:102CF00000BC9C0200FA9502005C8F0200DF880293
:102D00000082820200457C020027760200277002C2
:102D100000436A02007C640200D05E02003F590258
:102D200000C8530200FFFDFCFAF8F6F4F2F0EEECF6
:102D3000EAE9E7E5E3E1E0DEDCDAD9D7D5D4D2D0C1
:102D4000CFCDCBCAC8C7C5C3C2C0BFBDBCBAB9B757
:102D5000B6B4B3B2B0AFADACAAA9A8A6A5A4A2A1BF
:102D6000A09E9D9C9A99989795949392908F8E8D02
:102D70008B8A8988878684838281807F7E7D7B7A27
:102D8000797877767574737271706F6E6D6C6B6A2B
:102D9000696867666564636261605F5E5D5C5B5A1B
:102DA0005958585756555453525150504F4E4D4CF8
:102DB0004B4A4A4948474646454443424241403FC0
:102DC0003E3E3D3C3B3B3A39383837363535343377
:102DD00032323130302F2E2E2D2C2B2B2A29292820
:102DE000272726252524232322212120201F1E1EBC
:102DF0001D1C1C1B1B1A191918181716161515144B
:102E0000131312121111100F0F0E0E0D0D0C0C0BCF
:102E10000A0A09090808070706060505040403034A
:102E2000020201000000005C4300005C4300007AE5
:102E300043000000C00000A0C00000000053657403
:102E400074696E67732053746F72656400290A0099
:102E50002062797465733B2063726320005365744C
:102E600074696E67732053746F726564202800481C
:102E7000617264636F6465642044656661756C7437
:102E80002053657474696E6773204C6F6164656468
:102E90000A003B200020204D363033200020550012
:102EA0004C0046696C616D656E74206C6F61642FB7
:102EB000756E6C6F6164206C656E677468733A0040
:102EC00020204D393030204B004C696E65617220F6
:102ED000416476616E63653A002044002049002019
:102EE000204D333034205000204400204900202061
:102EF0004D3330312050005049442073657474695B
:102F00006E67733A002046002042002048002020CF
:102F10004D3134352053004D6174657269616C2008
:102F200068656174757020706172616D6574657239
:102F3000733A002020473239205334205A00204A67
:102F400000202047323920533320490020204D34BF
:102F500032302053004D65736820426564204C6513
:102F600076656C696E673A0020204D323036205805
:102F700000486F6D65206F66667365743A00204A7D
:102F80000020530020204D3230352042004164762D
:102F9000616E6365643A20423C6D696E5F7365677C
:102FA0006D656E745F74696D655F75733E20533C2B
:102FB0006D696E5F66656564726174653E20543C40
:102FC0006D696E5F74726176656C5F66656564726B
:102FD0006174653E204A3C6A756E635F6465763E47
:102FE0000020540020520020204D32303420500068
:102FF000416363656C65726174696F6E2028756EDC
:103000006974732F7332293A20503C7072696E7460
:103010005F616363656C3E20523C726574726163EC
:10302000745F616363656C3E20543C7472617665C5
:103030006C5F616363656C3E0020204D323031204F
:1030400058004D6178696D756D20416363656C65ED
:10305000726174696F6E2028756E6974732F733294
:10306000293A0020204D3230332058004D617869D4
:103070006D756D2066656564726174657320287571
:103080006E6974732F73293A0053746570732070DE
:10309000657220756E69743A0020440020204D321C
:1030A00030302053002044697361626C65640A000B
:1030B00046696C616D656E742073657474696E67C2
:1030C000733A0020204D3134392043203B20556E87
:1030D00069747320696E2043656C736975730A00A7
:1030E00020286D6D29002020473231202020203BF0
:1030F00020556E69747320696E206D6D00454550D2
:10310000524F4D206461746173697A6520657272F3
:103110006F722E0A00290A002062797465733B20C1
:1031200063726320002073746F726564207365742A
:1031300074696E6773207265747269657665642060
:103140002800202863616C63756C617465642921B3
:103150000A0020213D2000454550524F4D2043524A
:1031600043206D69736D61746368202D202873742A
:103170006F7265642920002053697A653A200049FE
:103180006E6465783A200000009643000096430084
:1031900000484200002042F43DA042F43DA0429687
:1031A000E3C7430080D943D0070000D00700006484
:1031B00000000010270000204D61726C696E3D56C2
:1031C0003833290A00454550524F4D2076657273B9
:1031D000696F6E206D69736D617463682028454561
:1031E00050524F4D3D00BDF511241FBECFEFD1E22F
:1031F000DEBFCDBF00E00CBF13E0A0E0B2E0E2EC28
:10320000F4E102E00BBF02C007900D92AE35B107AA
:10321000D9F720E1AEE5B3E001C01D92AA3AB207AA
:10322000E1F718E1C4EFD8E100E006C021970109F9
:10323000802FFE010F943807C33FD10780E00807B5
:10324000A9F70E94D6F60D945F0A0C940000CF9364
:10325000DF93EC01CB01BA010F94770029EC38EC35
:1032600048EC5EE30F942F0820E030E040E05FE39D
:103270000F9453070F949C086883DF91CF910895B2
:10328000E091BA0686E0E802F0011124E259F94F14
:1032900080919D0690E09583848308958F929F92FC
:1032A000AF92BF92CF92DF92EF92FF92CF936B01DA
:1032B0007C0120E030E0A9010F94710087FD9FC0E0
:1032C0006DEB77E386E095E3A70196010F94530732
:1032D0006B017C0120E030E040E251E40F94D60025
:1032E00020E030E048EC52E40F94D6004B015C0142
:1032F00020E030E0A901C701B6010F94710020E081
:1033000030E040EA50E487FF04C020E030E040EACB
:1033100050ECC501B4010F94530720E030E040E2C7
:1033200051E40F942F080F9497086B017C018BE2F6
:10333000F7FE09C0F094E094D094C094C11CD11C55
:10334000E11CF11C8DE28093FE0FC701B60120E164
:1033500037E240E050E00F94BD068AE0882E912CC1
:10336000A12CB12CCA01B901A50194010F94BD068D
:10337000605D6093FF0FC701B60128EE33E040E0C7
:1033800050E00F94BD06CA01B901A50194010F9444
:10339000BD06605D60930010C701B60124E630E011
:1033A00040E050E00F94BD06CA01B901A5019401A7
:1033B0000F94BD06605D609301108EE28093021051
:1033C000C701B601A50194010F94BD06C62FCA011D
:1033D000B901A50194010F94BD06605D60930310CF
:1033E000C05DC09304108EEF9FE0CF91FF90EF90EF
:1033F000DF90CF90BF90AF909F908F9008956DEB2E
:1034000077E386E095EB60CF8F929F92AF92BF9269
:10341000CF92DF92EF92FF92CF936B017C0120E07D
:1034200030E0A9010F94710087FDAAC06DEB77E32E
:1034300086E095E3A70196010F9453076B017C0189
:1034400020E030E0A9010F94710087FF9EC0C70102
:10345000B601905820E030E040E251E40F94D600ED
:1034600020E030E040E251E40F94D60020E030E06C
:1034700040EA50E40F94530720E030E040E251E48A
:103480000F942F080F9497086B017C0180E28093C2
:10349000FE0F60E280E1C81687E2D806E104F1047D
:1034A0008CF0C701B60120E137E240E050E00F9414
:1034B000BD06CA01B9012AE030E040E050E00F94B7
:1034C000BD06605D6093FF0F60E288EEC81683E082
:1034D000D806E104F1048CF0C701B60128EE33E010
:1034E00040E050E00F94BD06CA01B9012AE030E087
:1034F00040E050E00F94BD06605D6093001060E214
:1035000084E6C816D104E104F1048CF0C701B601C9
:1035100024E630E040E050E00F94BD06CA01B90156
:103520002AE030E040E050E00F94BD06605D60931B
:1035300001108AE0882E912CA12CB12CC701B60174
:10354000A50194010F94BD06C62FCA01B901A501BA
:1035500094010F94BD06605D609302108EE280932B
:103560000310C05DC09304108EEF9FE0CF91FF90D9
:10357000EF90DF90CF90BF90AF909F908F90089585
:103580006DEB77E386E095EB55CF20E030E040E24D
:1035900051E4C701B60162CF8F929F92AF92BF9262
:1035A000CF92DF92EF92FF92CF936B017C0120E0EC
:1035B00030E0A9010F94710087FD93C06DEB77E3B4
:1035C00086E095E3A70196010F9453076B017C01F8
:1035D00020E030E040E251E40F94D60020E030E0FB
:1035E0004AE754E40F94D6004B015C0120E030E040
:1035F000A901C701B6010F94710020E030E040EA54
:1036000050E487FF04C020E030E040EA50ECC50100
:10361000B4010F94530720E030E040E251E40F94EE
:103620002F080F9497086B017C01C114D104E104A9
:10363000F10409F45BC0F7FE59C0F094E094D09413
:10364000C094C11CD11CE11CF11C8DE28093FF0FC2
:10365000C701B60128EE33E040E050E00F94BD060C
:103660008AE0882E912CA12CB12CCA01B901A501A8
:1036700094010F94BD06605D609300108EE280930C
:103680000110C701B60124E630E040E050E00F949D
:10369000BD06CA01B901A50194010F94BD06605D84
:1036A00060930210C701B601A50194010F94BD06F5
:1036B000C62FCA01B901A50194010F94BD06605D32
:1036C00060930310C05DC09304108FEF9FE0CF9113
:1036D000FF90EF90DF90CF90BF90AF909F908F9032
:1036E00008956DEB77E386E095EB6CCF80E2AECF8B
:1036F000CF93DF93EC01CB01BA010F94770020E068
:1037000030E040E251E40F942F08688379838A8384
:103710009B83DF91CF910895CF93DF93EC01CB0191
:10372000BA010F94770020E030E040E251E40F94BA
:103730002F08688379838A839B83DF91CF910895D3
:103740000F94770020E030E040E251E40F942F081E
:103750005BCECF93DF93EC01CB01BA010F947700DE
:103760002AE037ED43E25DE30F942F080F949C08A5
:10377000688379838A839B83DF91CF910895CF9368
:10378000DF93EC01CB01BA010F9477002AE037ED0B
:1037900043E25DE30F942F08688379838A839B83D8
:1037A000DF91CF910895CF93DF93EC01CB01BA0164
:1037B0000F947700688379838A839B83DF91CF910D
:1037C0000895CF93DF93EC01CB01BA010F947700FA
:1037D000688379838A839B83DF91CF910895CF9308
:1037E000DF93EC01CB01BA010F94770020E030E0C9
:1037F00048EC52E40F942F08688379838A839B8373
:10380000DF91CF910895CF93DF93EC01CB01BA0103
:103810000F94770020E030E048EC52E40F942F083A
:10382000688379838A839B83DF91CF9108950F9476
:10383000770020E030E048EC52E40F942F082ECDC2
:10384000CF93DF93EC01CB01BA010F9477000F9473
:10385000970879836883DF91CF910895CF93DF93A1
:10386000EC01CB01BA010F94770020E030E04AE789
:1038700054E40F942F08688379838A839B83DF91B4
:10388000CF9108950F94770020E030E04AE754E4A8
:103890000F942F0881CECF92DF92EF92FF9223EF09
:1038A00034E045E35FE36091020770910307809184
:1038B0000407909105070F94D6002AE136EF45E9F9
:1038C0005EE30F942F086B017C0160919A0D70915B
:1038D0009B0D80919C0D90919D0D0F9475009B0107
:1038E000AC01C701B6010F94D6000F94C0096093D4
:1038F0001A0770931B0780931C0790931D07FF9076
:10390000EF90DF90CF9008952CEA35EC47E25EE32C
:1039100060911704709118048091190490911A0411
:103920000F942F08609395067093960680939706E0
:103930009093980608952CEA35EC47E25EE3609197
:103940001B0470911C0480911D0490911E040F941F
:10395000D60060939106709392068093930690939D
:10396000940608952CEA35EC47E25EE36091170473
:10397000709118048091190490911A040F942F08E3
:103980006093950670939606809397069093980699
:1039900008952CEA35EC47E25EE360911B047091D8
:1039A0001C0480911D0490911E040F94D600609316
:1039B00091067093920680939306909394060895CF
:1039C000FC0184910895FC01808108958091E30EAB
:1039D0009091E40E891B8F7059F48091000781113A
:1039E00005C081E090910107913009F080E00895D1
:1039F00081E00895AF92BF92CF92DF92EF92FF9253
:103A00000F931F93CF93DF93EC015B018A01FB01BE
:103A1000199587FD16C0C82ED12CF12CE12C2196CA
:103A2000F801C082D182E282F382CE01DF91CF9190
:103A30001F910F91FF90EF90DF90CF90BF90AF90CC
:103A40000895982F907E903CA9F48F7190E0B0E09B
:103A5000A0E06C017D0156E0CC0CDD1CEE1CFF1CCF
:103A60005A95D1F7CE010196F50119958F73C82AA1
:103A70002296D6CF982F907F903E11F58F7090E0D0
:103A8000B0E0A0E06C017D0136E0CC0CDD1CEE1C4A
:103A9000FF1C3A95D1F7CE010196F50119958F7368
:103AA000C82A46E0CC0CDD1CEE1CFF1C4A95D1F761
:103AB000CE010296F50119958F73C82A2396B0CFCF
:103AC000982F987F903F79F5877090E0B0E0A0E064
:103AD0006C017D0186E0CC0CDD1CEE1CFF1C8A9580
:103AE000D1F7CE010196F50119958F73C82A96E09A
:103AF000CC0CDD1CEE1CFF1C9A95D1F7CE01029672
:103B0000F50119958F73C82A26E0CC0CDD1CEE1C3C
:103B1000FF1C2A95D1F7CE010396F50119958F73F5
:103B2000C82A24967DCF982F907C903841F4807CD1
:103B3000803869F42196CE01F5011995F8CF8E7F72
:103B40008D3F28F02196CE01F5011995F8CFC12CB3
:103B5000D12C760165CF90E080E00895282F9091D8
:103B6000AA03833021F495FD0FC094FD0FC0892F67
:103B700090E0B0E0A0E004C0B695A7959795879532
:103B80002A95D2F78170089581E0089580E0089524
:103B90002FEB280F2A3108F047C0E22FF0E0809188
:103BA000C5039091C603A091C703B091C80304C098
:103BB000B695A795979587952A95D2F780FD02C06F
:103BC00081700895E555FC4FE081EE2341F180912D
:103BD000FE069091FF06E80FF92FF11D808190ED10
:103BE000980F9A3030F08E3251F4818180538A30B0
:103BF00098F4F093A903E093A80381E008958D322F
:103C000011F08B3249F4818190ED980F9A3088F34E
:103C10008E3211F48281EACFF0E0E0E0EACF109238
:103C2000A9031092A803E9CF80E00895129A08959D
:103C30000F9477000F949708CB010C94DADF84E09F
:103C40000C94869D83E00C94869D82E00C94869D66
:103C50000F94770029EC38EC48EC5EE30F942F08C2
:103C600020E030E040E05FE30F9453070F949C089E
:103C7000862F0C9447E080E090E0A0E8B0E48093C9
:103C80004B0290934C02A0934D02B0934E0281EDF3
:103C900092E00E94E6D580E090E0A4E3B2E4809355
:103CA000430290934402A0934502B093460280934E
:103CB000470290934802A0934902B0934A02E091D0
:103CC0002004EE0FFF0BEF54FD4F80819181833074
:103CD000910571F18430910509F43FC0029761F4B8
:103CE00080E090E0AFE2B3E480934302909344021B
:103CF000A0934502B093460289EB92E00E94E6D57C
:103D00008DEC9CECACE4BEE380934B0290934C02B0
:103D1000A0934D02B0934E0281ED92E00E94E6D551
:103D2000809120048F5F8430ECF480932004089508
:103D300080E090E0AFE2B3E48093430290934402CA
:103D4000A0934502B09346028093470290934802A5
:103D5000A0934902B0934A02CFCF80E090E0AFE257
:103D6000B3E4F2CF109220040895CF93DF9300D0F4
:103D70001F92CDB7DEB70F949C080F94750069832E
:103D80007A838B839C83CE0101960E94F2DB0F9095
:103D90000F900F900F90DF91CF9108950F947700BF
:103DA0002AE037ED43E25DE30F942F08DECFCF9298
:103DB000DF92EF92FF92CF93DF9300D01F92CDB7A7
:103DC000DEB76B017C0120E030E0A9010F947100A7
:103DD00087FD1BC06DEB77E386E095E3A7019601B5
:103DE0000F94530769837A838B839C83CE0101965A
:103DF0000E94F2DB0F900F900F900F90DF91CF9108
:103E0000FF90EF90DF90CF9008956DEB77E386E021
:103E100095EBE4CF0F9477002AE037ED43E25DE3C2
:103E20000F942F08C4CF0F947700C1CFCF92DF92A9
:103E3000EF92FF92CF93DF9300D01F92CDB7DEB702
:103E40006B017C0120E030E0A9010F94710087FD37
:103E50001BC06DEB77E386E095E3A70196010F9415
:103E6000530769837A838B839C83CE0101960E94DA
:103E700075DC0F900F900F900F90DF91CF91FF9016
:103E8000EF90DF90CF9008956DEB77E386E095EBB0
:103E9000E4CF0F94770020E030E040E251E40F944B
:103EA0002F08C4CFCF92DF92EF92FF926B017C017B
:103EB00020E030E0A9010F94710087FD26C06DEB72
:103EC00077E386E095E3A70196010F9453076B0112
:103ED0007C0120E030E0A9010F94710020E030E087
:103EE00040E05FE387FF04C020E030E040E05FEBAC
:103EF000C701B6010F9453070F949708CB01FF90A9
:103F0000EF90DF90CF900C9430DF6DEB77E386E09D
:103F100095EBD9CF0F947700C5CF0F94770020E0B1
:103F200030E048EC52E40F942F080C94F1E40C9428
:103F300020CC0C9420CC0C9420CC0C9420CC0C9451
:103F4000A9CB0C94A9CB0C94A9CB0C94A9CB63E975
:103F500072E084E690E00E94C5E46AEB72E084E6D9
:103F600090E00C94C5E48111F2CF68EB71E084E13C
:103F700090E00C94C5E40E947CC8F5CF0E9478F5CF
:103F8000F2CF0E9415DAE3CFCF92DF92EF92FF9249
:103F90000F931F930E9456A00091CF031091D0035E
:103FA0002091D1033091D2036B017C01C01AD10A58
:103FB000E20AF30A9701860137FD11C02091CE0372
:103FC00020952093CE036A547C4F8F4F9F4F609370
:103FD000CF037093D0038093D1039093D20381E0F9
:103FE0009091CE03911101C080E01F910F91FF903D
:103FF000EF90DF90CF900895CF93DF93C0915F064D
:10400000D0916006209729F160915B0670915C0663
:1040100080915D0690915E060F9497086E5F7F4FCA
:1040200024976C177D07ACF470934A04609349049D
:104030000E9456A0605A75418F4F9F4F60934B046A
:1040400070934C0480934D0490934E04DF91CF9174
:10405000089510924B0410924C0410924D0410924B
:104060004E04F4CFCF92DF92EF92FF920F931F9303
:10407000CF93DF9300D000D01F921F92CDB7DEB751
:104080008E010F5F1F4FD80130E020E0FB01E20FEF
:10409000F31FE491ED932F5F3F4F28303105B1F7C7
:1040A000877098E0899FB001112460648BE19FE0E4
:1040B0000E9471A183E790E00197F1F77801E8E0B1
:1040C000EE0EF11C8BE9C82ED12CF80161918F0105
:1040D0008BE19FE00E94A880C6010197F1F7E016EE
:1040E000F10699F728960FB6F894DEBF0FBECDBF44
:1040F000DF91CF911F910F91FF90EF90DF90CF90C4
:104100000895CF92DF92EF92FF920F931F93CF9378
:10411000DF9300D000D0CDB7DEB78A0146E0469FDE
:104120009001479F300D1124BC01620F731F46E0C0
:1041300050E0CE0101960E94A5FFC980DA80EB8095
:10414000FC80F80140815181628173818FEF9FEF84
:10415000C416D506E606F70640F081E090E04C155F
:104160005D056E057F0508F080E026960FB6F89491
:10417000DEBF0FBECDBFDF91CF911F910F91FF909A
:10418000EF90DF90CF9008950F931F93CF93DF931D
:10419000CDB7DEB72E970FB6F894DEBF0FBECDBFFA
:1041A0008A011E861D866F83788789879A872FEFFD
:1041B0002B87603871058105910538F48BE19FE00C
:1041C0000E94A88081E090E02FC09E01235F3F4FB6
:1041D000AE01495F5F4F61E970E08DE192E10E94BD
:1041E000779497FD2CC08D859E8526E0289FB00191
:1041F000299F700D1124635E7D4E46E050E0CE0194
:1042000001960E94A5FF6D818BE19FE00E94A8802E
:1042100001301105B9F26E816623A1F28BE19FE0B6
:104220000E94A88082E090E02E960FB6F894DEBF40
:104230000FBECDBFDF91CF911F910F9108959E01C9
:10424000235F3F4FAE01495F5F4F63E670E08BEC49
:104250009FE00E94779497FD0BC08D859E8526E098
:10426000289FB001299F700D11246553704FC5CF51
:104270006FE3A4CF2F923F924F925F926F927F9203
:104280008F929F92AF92BF92CF92DF92EF92FF9266
:104290001F93CF93DF93CDB7DEB72C970FB6F8946B
:1042A000DEBF0FBECDBF7A011901DC012D913D911A
:1042B0004D915C912D833E834F835887FB01408055
:1042C0005180628073808090430290904402A0905D
:1042D0004502B0904602A50194016D817E818F81D7
:1042E00098850F94710081110EC011E0A301920115
:1042F00060914702709148028091490290914A0270
:104300000F947100811110E0D1012D913D914D91DB
:104310005C9129873A874B875C87F701C080D18001
:10432000E280F3802091000230910102409102026C
:1043300050910302C701B6010F947100882309F45C
:104340004EC0C0920002D0920102E0920202F092AE
:10435000030280914F0290915002A0915102B091BE
:104360005202409147025091480260914902709177
:104370004A028092BD069092BE06A092BF06B092FD
:10438000C0064093C1065093C2066093C306709363
:10439000C406C092C506D092C606E092C706F09247
:1043A000C8068093C9069093CA06A093CB06B09323
:1043B000CC0620E030E040E05FE36091C60D7091F4
:1043C000C70D8091C80D9091C90D0F94D6006983D7
:1043D0007A838B839C83CE0101960E9480D52D81A8
:1043E0003E814F8158852093BD063093BE06409391
:1043F000BF065093C0064092C1065092C20660921A
:10440000C3067092C406D1012D913D914D915C91EE
:104410006091C9067091CA068091CB069091CC0636
:104420000F9453076093C9067093CA068093CB0616
:104430009093CC0611112FC020E030E0A9016985CE
:104440007A858B859C850F947100811133C060E063
:1044500070E088EC92E469837A838B839C83CE013D
:1044600001960E9480D52C960FB6F894DEBF0FBE41
:10447000CDBFDF91CF911F91FF90EF90DF90CF9054
:10448000BF90AF909F908F907F906F905F904F9074
:104490003F902F9008952AEF3EE74AE25FE3609154
:1044A000CA0D7091CB0D8091CC0D9091CD0D0F94D4
:1044B000D600D1CF60E070E080EA91E4CCCFEF92FB
:1044C000FF920F931F93CF93DF9300D000D000D0C3
:1044D0001F921F92CDB7DEB77C0120919B06422F21
:1044E000022E000C550B80919C06833099F184308C
:1044F00051F188EC98E15F932F939F938F938E01F6
:104500000F5F1F4F1F930F930F940A00C7010E9464
:1045100026EE4FE350E0B80180E994E00F94450A9D
:104520000F900F900F900F900F900F902B960FB64B
:10453000F894DEBF0FBECDBFDF91CF911F910F91D9
:10454000FF90EF90089584ED98E127FDD4CF8FEB95
:1045500098E1D1CF8DED98E1CECF80918A069091F0
:104560008B06ADCFE091BA0686E0E802F001112497
:10457000E259F94F80819181A2CF8091A803909157
:10458000A903009731F04AE050E070E060E00C943D
:104590009DFE60E070E0CB0108958091A8039091AA
:1045A000A903009731F04AE050E070E060E00C941D
:1045B00070FD60E070E0CB010895EFDFCB0108955E
:1045C0000F931F93CF938091A8039091A903009715
:1045D000E9F0FC018F01C1912C2F2F7D81F0C534B2
:1045E00011F0C536B9F7F801108270E060E00E9462
:1045F0001AFCF801C083CF911F910F91089570E0CC
:1046000060E0CF911F910F910C941AFC60E070E074
:10461000CB01F1CF382F1092B9068091A40690916A
:10462000A506A091A606B091A706B7FF08C01092F4
:10463000A4061092A5061092A6061092A706209135
:10464000A406209399061092B4068091810618164C
:10465000ECF4082E000C990B831B9109022E000C20
:10466000330B2817390794F097FF02C090E080E0E1
:1046700080939906092E000CAA0BBB0B8093A4060D
:104680009093A506A093A606B093A70680919906DD
:104690006623A9F090919A06891714F480939A06DC
:1046A00020919A06022E000C330B2D5F3F4F482FAE
:1046B000082E000C550B241735071CF483508093EB
:1046C0009A060895E0911604E63010F581E08E0F09
:1046D000809316044091A4065091A5066091A60609
:1046E0007091A70690919A068091810628E0E29F3A
:1046F000F0011124EA51FC4F2091190F30911A0F4B
:1047000031832083428353836483758396838783B5
:104710000895CF93DF93CDB7DEB78E819091F706E2
:10472000891768F08093F7069E01275F3F4F4F81FE
:10473000588568E270E08EEC96E00F943900DF91C6
:10474000CF9108950F931F93CF93DF938C016F3F09
:1047500019F41092F70660E02091F706862F062ED6
:10476000000C990B2817190609F0F4F46093F7066A
:10477000C8010E94C0FF800F911FEC01C01BD10B2C
:10478000C932D1053CF00197FC012491207C2038EE
:10479000D1F3F3CFDD27AE01B8018EEC96E00E9495
:1047A000E1FFC253D94F1882DF91CF911F910F9132
:1047B00008950F931F930E9456A00091CB0E109165
:1047C000CC0E2091CD0E3091CE0E601B710B820B62
:1047D000930B97FD0CC086B186FB882780F991E08A
:1047E0008927349B8260329B84608093CF0E8091B6
:1047F000CF0E81709091CF0E91FD82609091E50374
:10480000981749F0813009F148F0823079F083300F
:1048100091F08093E5031F910F910895913079F005
:104820009230B9F79091E40391500CC0992339F07C
:104830009330C1F3EECF9130A9F3923051F79091BC
:10484000E4039F5F9093E403E4CF992359F39330FB
:1048500001F7F5CFCF92DF92EF92FF92CF93C82F5F
:104860000E9456A06B017C0124EA30E74DE75FE32C
:1048700060915302709154028091550290915602BA
:104880000F94710087FD18C08AEF90E0A0E0B0E0BF
:104890008C0D9D1DAE1DBF1D8093D3039093D4033B
:1048A000A093D503B093D603C0930D02CF91FF9090
:1048B000EF90DF90CF90089580E090E0DC01E8CFAA
:1048C000FC0180E09491992331F0907C903809F0BC
:1048D0008F5F3196F7CF0895FC0180E09191992385
:1048E00029F0907C9038D1F38F5FF8CF089562EE75
:1048F00075E180E0B7DB6AED75E181E0B3DB62ED85
:1049000075E182E0AFDB6AEC75E186E0ABDB62EC7F
:1049100075E187E0A7DB6AEB75E183E0A3CB20E0DC
:1049200030E040E05FE360918606709187068091F9
:104930008806909189060F9453070F949708CB012E
:104940000895CF93823061F4C4E0C15058F088E0FC
:10495000C89FB00111246D577A4E8C2F83DBF5CFA1
:10496000CF91C5CFCF9108950F931F93522F2091D0
:10497000190F30911A0F2817390781F190931A0FE8
:104980008093190F8B0130E020E00093A406109370
:10499000A5062093A6063093A70640939A06509347
:1049A00081068B599C4221F41092FA06109216044B
:1049B0008BE19FE00E9479A181E02091190F309155
:1049C0001A0F2B593C4209F080E0BBDF82E0809354
:1049D000420281E08093B40610921F041F910F9150
:1049E000089580914202882331F041E06DE378E13F
:1049F00081E00E945D9A809114108770873069F47D
:104A00001092200420E040E070E060E084E09CE24E
:104A1000ABDF81E080931F042EC9089520E040E0C1
:104A200070E060E08BE99CE29FCFCF930E9415DAA3
:104A30000E947CC8C82F882319F080E00E948CEE69
:104A40008C2F91DACF91EACF0F931F93CF93DF93FF
:104A5000CDB7DEB76E970FB6F894DEBF0FBECDBFF1
:104A6000282F082E000C330B90910F02409110025A
:104A70008F3F39F0F901EE0FFF1FEF5EFD4F908180
:104A800041814F939F933F938F9385EA96E19F9344
:104A90008F938E010F5F1F4F1F930F930F940A0088
:104AA0004FE350E0B80180E994E00F94450AB6DF87
:104AB0000FB6F894DEBF0FBECDBF6E960FB6F8945A
:104AC000DEBF0FBECDBFDF91CF911F910F91089533
:104AD0008FEFBACF8091BA06B7CFE0911604EE23DC
:104AE00081F0E150E093160488E0E89FF001112482
:104AF000EA51FC4F628173812781468180819181D7
:104B000033CF8CCF4F925F926F927F928F929F9212
:104B1000AF92BF92CF92DF92EF92FF920F931F93CB
:104B2000CF93DF9300D01F92CDB7DEB70E9456A07F
:104B30004B015C0180910D028F3F09F441C00E943E
:104B400056A0C090D303D090D403E090D503F0904A
:104B5000D6036C197D098E099F0997FD31C080919C
:104B6000E30E9091E40E8F5F8F70891749F1E09109
:104B70000D0280E090E0A5E0B3E4E43050F424E0DE
:104B8000E29FF0011124EF55FD4F80819181A281B8
:104B9000B38189839A83AB83BC83C12CD12C7601EA
:104BA0008E010F5F1F4F2FE432E04BE452E067E4C9
:104BB00072E083E492E00E94EB958FEF80930D0208
:104BC000F8DD8091E303811115C08091CF0E82FF43
:104BD00011C08091E20381110FC091E09093E20334
:104BE0008091F8068927809380061092F8060E942B
:104BF00062A002C01092E2038091DE039091DF0375
:104C0000A091E003B091E103A5019401281B390BA9
:104C10004A0B5B0BDA01C901B7FD86C1D501C4019E
:104C20008C599F4FAF4FBF4F8093DE039093DF03AC
:104C3000A093E003B093E1036091E403062E000C1F
:104C4000770B77FF03C07195619571099091E4032B
:104C50008091DD03981302C0633068F0633069F41B
:104C60008091E40387FD9CC081E0880F880F8093CA
:104C7000E40364E002C01092E4038091E4038093B3
:104C8000DD03643008F08EC08091800681110CC174
:104C90008091190F90911A0F8B599C4241F4809189
:104CA0000E02882309F412C1815080930E020E94E3
:104CB0002ACFC0902207D0902307E0902407F090DD
:104CC000250781110E9437CF20914202222309F447
:104CD0004BC0D701C6014AE0B695A7959795879531
:104CE0004A95D1F7009741E0A407B10520F08FEF76
:104CF0009FEFA0E0B0E096958795009739F040913E
:104D0000D7035091D8034817590770F5223038F06F
:104D1000243008F4EDC0243011F410924202E091E6
:104D2000190FF0911A0F1995109280068091190FA2
:104D300090911A0F8B599C42F9F40E9456A0DC0105
:104D4000CB0188199909AA09BB09C090D703D09053
:104D5000D803F12CE12CC816D906EA06FB0620F48C
:104D60009093D8038093D7038091190F90911A0FD5
:104D70008B599C4209F4C0C08091FA068111BCC0D5
:104D80008091D9039091DA03A091DB03B091DC0309
:104D9000881A990AAA0ABB0AB7FCBCC03FDEBAC08F
:104DA0008FEF63CF8091B90621E030E040E050E022
:104DB000882309F456C0C090B506D090B606E0909E
:104DC000B706F090B806C114D104E104F104E9F18A
:104DD00070E090E080E00F94750020E030E040E863
:104DE0005EE30F94D6002B013C01C501B4016C19A0
:104DF0007D098E099F090F9475009B01AC01C301C9
:104E0000B2010F942F0820E030E04AE754E40F94F9
:104E1000D6006B017C0120E030E040EA52E40F94C0
:104E20007A0924E630E040E050E087FF12C020E03D
:104E300030E040EF51E4C701B6010F947A092AE04F
:104E400030E040E050E087FF04C021E030E040E087
:104E500050E08092B5069092B606A092B706B09246
:104E6000B806A091E4030A2E000CBB0B0F94E306D6
:104E700024E030E040E050E00F94BD068091A406AD
:104E80009091A506A091A606B091A706820F931F48
:104E9000A41FB51F8093A4069093A506A093A60611
:104EA000B093A7061092E403D501C4018856954C2F
:104EB000AF4FBF4F8093D9039093DA03A093DB03E6
:104EC000B093DC0381E080934202E2CE89E08093DC
:104ED0000E028091D7039091D803009729F0019793
:104EE0009093D8038093D70381E080934202DFCE72
:104EF00081E08093420213CF38E9830E3AE3931E98
:104F0000A11CB11C8092D9039092DA03A092DB031A
:104F1000B092DC03809142028130D9F0833021F4D9
:104F20008BE19FE00E9479A10F900F900F900F905E
:104F3000DF91CF911F910F91FF90EF90DF90CF9075
:104F4000BF90AF909F908F907F906F905F904F90A9
:104F5000089510924202E8CF80939D0620E040E041
:104F600070E060E080E49CE2FFCC20E044E064E19B
:104F70008BE19FE00E9480A181E02091190F309188
:104F80001A0F2B593C4209F080E0DBDC8BE19FE0FB
:104F90000C9479A1EADF3E98469A3C98449A3A9854
:104FA000429A07DC1092E40308954FEF5FEFECC8DC
:104FB000AF92BF92CF92DF92EF92FF920F931F9327
:104FC000CF93DF9300D01F92CDB7DEB76C015B01AA
:104FD0007A0110E000E00E151F05E0F419821A8234
:104FE0001B821C82AE014F5F5F4FB501C6010E945C
:104FF000FA1C6C0169817A818B819C816115710534
:105000008105910539F0A701401B510BBDD8080F50
:10501000191FE1CFC8010F900F900F900F90DF91F3
:10502000CF911F910F91FF90EF90DF90CF90BF90A5
:10503000AF900895CF92DF92EF92FF920F931F935C
:10504000CF93DF9300D01F92CDB7DEB77C01062F40
:105050006A01122F11160CF03CC0AE014F5F5F4F7A
:1050600060EE7CE1C7010E94FA1C7C0169817A81B3
:105070008B819C81611571058105910551F16D331D
:1050800071058105910509F447C06E3771058105E9
:10509000910509F441C06A3271058105910539F520
:1050A00007FF0FC08EEE95E10E3F11F08AEE95E1FD
:1050B000412F012E000C550B60EE7CE179DF181BAF
:1050C00059C065E470E080E090E06FDF115031F589
:1050D00010E0812F0F900F900F900F90DF91CF91E4
:1050E0001F910F91FF90EF90DF90CF900895643261
:1050F00071058105910569F4C114D10451F0412F66
:10510000012E000C550B60EE7CE1C60151DF181B2F
:10511000A1CF4BDF11509ECF07FDC4CF61E0898145
:105120009A81AB81BC81CD97A105B10509F460E0FE
:10513000600F6A30A4F01150862F6AE00F940407C4
:10514000092F682F880F770B605D7F4F072E000CAB
:10515000880B990B2ADF112309F4BACF602F062E92
:10516000000C770B605D7F4F072E000C880B990BAE
:105170001CDF1150112309F4ABCF412F012E000C7D
:10518000550B60EE7CE1C70113DF181BA2CF4FEF78
:105190005FEF63EE7CE10CCF4FEF5FEF60EE7CE101
:1051A00007CF0F931F93CF93DF9300D000D01F92B0
:1051B0001F92CDB7DEB700917D0210917E02209143
:1051C0007F02309180020D831E832F8338870091E8
:1051D000810210918202209183023091840209831E
:1051E0001A832B833C839091220F691710F06FEF85
:1051F000690F262F30E04091230F2C0F3D1FF9013E
:10520000403199F4943089F46181680F60688BE1D2
:105210009FE028960FB6F894DEBF0FBECDBFDF919A
:10522000CF911F910F910C9471A16581EECF2F92B8
:105230003F924F925F926F927F928F929F92AF9226
:10524000BF92CF92DF92EF92FF920F931F93CF9373
:10525000DF935C010E94C0FF01968501080F191FB2
:10526000C8010E94C0FFF8016080C1E0611001C068
:10527000C0E0F801E80FF91FFF24F3948181811148
:1052800001C0F12C60E084E0C5D970909A06D0E0AE
:10529000CC2ED12CFFEFCF1ADF0ACF0CD11C92E01D
:1052A000592E25E0422E711096C08091420288232B
:1052B00091F0E0913D02E25061E279E1E33038F4AF
:1052C000F0E0EE0FFF1FE752FD4F6081718143E078
:1052D0008D2F0E945D9AC2E0662069F0E2E07E12A6
:1052E00009C080914202882329F041E0B8018D2F46
:1052F0000E945D9AC3E0F1E0CF16D10409F4CF5FBC
:10530000C71194C080914202882309F48DC042E005
:105310006EE279E18D2F0E945D9A3090FC066D2F30
:105320008BE03FDF0E94C41F282E37FE5FC020E0C5
:1053300030E040E05FE360915B0670915C06809135
:105340005D0690915E060F9453070F9497084B01EA
:10535000E0905F06F090600662E070E080E090E030
:1053600024DE8AE393E097FC03C0C4010E94DADFE5
:105370000EDF6FE270E080E090E017DE21103DC0AC
:105380008FEF21E0381629F0232D330C330B37FD36
:1053900020E0429EF0011124ED5AFB4F84818823C6
:1053A00061F160E270E080E090E0FFDDEAE0EE169F
:1053B000F1040CF456C060E270E080E090E0F5DDAE
:1053C000F4E6EF16F1040CF457C060E270E080E000
:1053D00090E0EBDD16C081E078127DCF8091420233
:1053E000882309F478CF41E0B50172CF98DA4C01F7
:1053F000E0908A06F0908B06AFCFC7010E94AFDF26
:10540000C6DE61E070E080E090E0CFDD60E270E059
:1054100080E090E0CADD8AE0E816F1042CF460E256
:1054200070E080E090E0C1DD509242027394DF5F53
:10543000D43009F038CFCF5FC0938106DF91CF9190
:105440001F910F91FF90EF90DF90CF90BF90AF90A2
:105450009F908F907F906F905F904F903F902F9094
:10546000089561E070E080E090E09FDD60E270E030
:1054700080E090E09ADDD3CF61E070E080E090E0E2
:10548000F9CFFC01A081B1811C92A281B3818C91E2
:105490008F5F8C930280F381E02D608180E081CE6C
:1054A0004F925F926F927F928F929F92BF92CF9214
:1054B000DF92EF92FF920F931F93CF93DF9300D071
:1054C00000D01F921F92CDB7DEB77C013B016A016D
:1054D0004901FB016081FC01808163DEC114D104BC
:1054E00061F1FA82E9827C826B8201111FC0AE01F8
:1054F0004B5F5F4FB401C6010E94FA1C6C016D81C5
:105500007E818F8198856115710581059105A9F0CE
:105510004CDDF70180818F5F8083843140F3CE01C1
:105520000196AFDFE4CFB12C860129C08601B12CF2
:1055300026C0452846284728B1F728960FB6F89484
:10554000DEBF0FBECDBFDF91CF911F910F91FF90B6
:10555000EF90DF90CF90BF909F908F907F906F9053
:105560005F904F900895B39407C0B1102EC00115FD
:105570001105C9F20F5F1F4F01151105A9F2AE0108
:105580004B5F5F4FB401C6010E94FA1C6C014D8055
:105590005E806F8078844114510461047104A9F025
:1055A000F0E24F16510461047104F9F2D301C20113
:1055B0008D97A109B1090297A105B10530F04BE221
:1055C000441651046104710471F6F7018081482F7B
:1055D0004B0D5527551F453151052CF0853018F0DE
:1055E000CE0101964EDF81E0411451046104710443
:1055F00009F480E0B80EF70180818B0D8083BB2019
:1056000009F497CFBA94AE014B5F5F4FB401C80164
:105610000E94FA1C8C016D817E818F819885C5DC8A
:10562000EECF2F923F924F925F926F927F928F9226
:105630009F92AF92BF92CF92DF92EF92FF920F9321
:105640001F93CF93DF9300D0CDB7DEB74C013B0162
:105650005A01222E3B8328014091A4065091A506B1
:105660006091A6067091A706411551056105710567
:1056700079F081E0141615060CF080E080931F0489
:105680001092A4061092A5061092A6061092A706E4
:1056900010911F043090800610928006311005C0D2
:1056A00080914202882309F497C0C20109D9082FCA
:1056B00080E0C114D10411F0C60102D91A82198206
:1056C000E114F104B1F4402F50E0282F30E0CA017A
:1056D000820F931F45976CF484E190E0841B950B37
:1056E000821B930B97FD0196959587958A8381E0A0
:1056F000898301E020EE3CE1A201BE016F5F7F4F94
:10570000CE010296CDDEE114F10489F08A8188236E
:1057100021F01A8289818F5F898300E023EE3CE1CA
:10572000A701BE016F5F7F4FCE010296B9DEC114A3
:10573000D10451F000E020EE3CE1A601BE016F5F14
:105740007F4FCE010296ACDE63E080E02ADD6BE5A0
:1057500070E080E090E0112321F060E270E080E0F2
:1057600090E023DCC30118DD6DE570E080E090E09F
:10577000112321F060E270E080E090E016DCC401CB
:105780009FD863E092E1981B892F0BDD60E270E007
:1057900080E090E0112321F06BE570E080E090E084
:1057A00004DCC401F9DC60E270E080E090E01123E9
:1057B00021F06DE570E080E090E0F7DB332049F008
:1057C000111102C0A22CBB80A114B104D9F0F501C3
:1057D000199581E08093FA060F900F900F90DF915A
:1057E000CF911F910F91FF90EF90DF90CF90BF90DE
:1057F000AF909F908F907F906F905F904F903F9071
:105800002F9008956AD9E5CFCF92DF92EF92FF9261
:105810000F931F9385E2C82E88E1D82EF12CE12C3E
:1058200007E218E123E93CE44BE35EE163E378E15E
:1058300088E398E1F6DE1F910F91FF90EF90DF90E3
:10584000CF900895CF92DF92EF92FF920F931F9324
:1058500080EAC82E87E1D82EF12CE12C03EB17E16A
:1058600030E020E045E155E262EA77E189EA97E13C
:10587000D8DE1F910F91FF90EF90DF90CF900895A9
:10588000AF92BF92CF92DF92EF92FF920F931F934E
:10589000CF93DF93CDB7DEB7ADB6BEB683E696E164
:1058A0000FD890E001962DB73EB7281B390B0FB6E5
:1058B000F8943EBF0FBE2DBF8DB79EB701967C01F9
:1058C00063E676E10E94B9FF80919D0600E316E150
:1058D000813031F00BE116E1823011F003E416E182
:1058E00084E5C82E86E1D82E2EE035E245E155E26A
:1058F00066E576E18DE596E194DE0FB6F894BEBEDE
:105900000FBEADBEDF91CF911F910F91FF90EF9031
:10591000DF90CF90BF90AF900895CF92DF92EF923B
:10592000FF9269017A013DDCC701B601FF90EF905B
:10593000DF90CF903ACB4F925F926F927F928F928F
:105940009F92AF92BF92CF92DF92EF92FF920F930E
:105950001F93CF93DF93CDB7DEB72E970FB6F89492
:10596000DEBF0FBECDBF1092B906809180061092A7
:105970008006882301F120E040E070E060E083EFE2
:105980009CEE0E94B424F1DA2E960FB6F894DEBF96
:105990000FBECDBFDF91CF911F910F91FF90EF9080
:1059A000DF90CF90BF90AF909F908F907F906F903F
:1059B0005F904F90089520913702309138024091C6
:1059C000A4065091A506CA01820F931F2436310503
:1059D00009F04EC04730510544F006978A309105D2
:1059E0000CF055C08AE090E05CC006964A3F5F4FDD
:1059F000ACF30E94C41F182F60E080E0D2DB0E944D
:105A00008F246C01E0908A06F0908B0662E070E0D3
:105A100080E090E0CADA8AE393E0D7FC03C0C601D5
:105A20000E94DADFB4DB6FE270E080E090E0BDDA84
:105A3000111147C080915704882309F442C060E2E5
:105A400070E080E090E0B1DAFAE0EF16F1040CF4D7
:105A50000BC360E270E080E090E0A7DA24E6E21693
:105A6000F1049CF160E270E080E090E09EDA2DC0ED
:105A7000243631054CF48536910504F58A309105BC
:105A800034F48AE090E009C084369105BCF0883E89
:105A9000E3E09E0714F087EE93E02817390709F436
:105AA000A8CF90933802809337021092A4061092E8
:105AB000A5061092A6061092A7069BCF84E690E05A
:105AC000F0CFC7010E94AFDF62DB61E070E080E0F1
:105AD00090E06BDA60E270E080E090E066DA4AE045
